{"contracts/EventWork.sol":{"EventWork":{"abi":[{"anonymous":false,"inputs":[{"indexed":false,"internalType":"address","name":"sender","type":"address"},{"indexed":false,"internalType":"uint256","name":"ad","type":"uint256"},{"indexed":false,"internalType":"uint256","name":"result","type":"uint256"}],"name":"WorkDone","type":"event"},{"inputs":[],"name":"run","outputs":[],"stateMutability":"nonpayable","type":"function"}],"evm":{"bytecode":{"linkReferences":{},"object":"608060405234801561001057600080fd5b50610148806100206000396000f3fe608060405234801561001057600080fd5b506004361061002b5760003560e01c8063c040622614610030575b600080fd5b61003861003a565b005b60036000819055507f0cd743b7795372a65ad040abca2e10f032dac32f311a80eac7f9e24a06f430dd3342600054604051610077939291906100db565b60405180910390a1565b600073ffffffffffffffffffffffffffffffffffffffff82169050919050565b60006100ac82610081565b9050919050565b6100bc816100a1565b82525050565b6000819050919050565b6100d5816100c2565b82525050565b60006060820190506100f060008301866100b3565b6100fd60208301856100cc565b61010a60408301846100cc565b94935050505056fea264697066735822122057aab576c2ab276b61d62f86ec4d8192757ef2a05fb6d6cde588a3044c867a9e64736f6c63430008110033","opcodes":"PUSH1 0x80 PUSH1 0x40 MSTORE CALLVALUE DUP1 ISZERO PUSH2 0x10 JUMPI PUSH1 0x0 DUP1 REVERT JUMPDEST POP PUSH2 0x148 DUP1 PUSH2 0x20 PUSH1 0x0 CODECOPY PUSH1 0x0 RETURN INVALID PUSH1 0x80 PUSH1 0x40 MSTORE CALLVALUE DUP1 ISZERO PUSH2 0x10 JUMPI PUSH1 0x0 DUP1 REVERT JUMPDEST POP PUSH1 0x4 CALLDATASIZE LT PUSH2 0x2B JUMPI PUSH1 0x0 CALLDATALOAD PUSH1 0xE0 SHR DUP1 PUSH4 0xC0406226 EQ PUSH2 0x30 JUMPI JUMPDEST PUSH1 0x0 DUP1 REVERT JUMPDEST PUSH2 0x38 PUSH2 0x3A JUMP JUMPDEST STOP JUMPDEST PUSH1 0x3 PUSH1 0x0 DUP2 SWAP1 SSTORE POP PUSH32 0xCD743B7795372A65AD040ABCA2E10F032DAC32F311A80EAC7F9E24A06F430DD CALLER TIMESTAMP PUSH1 0x0 SLOAD PUSH1 0x40 MLOAD PUSH2 0x77 SWAP4 SWAP3 SWAP2 SWAP1 PUSH2 0xDB JUMP JUMPDEST PUSH1 0x40 MLOAD DUP1 SWAP2 SUB SWAP1 LOG1 JUMP JUMPDEST PUSH1 0x0 PUSH20 0xFFFFFFFFFFFFFFFFFFFFFFFFFFFFFFFFFFFFFFFF DUP3 AND SWAP1 POP SWAP2 SWAP1 POP JUMP JUMPDEST PUSH1 0x0 PUSH2 0xAC DUP3 PUSH2 0x81 JUMP JUMPDEST SWAP1 POP SWAP2 SWAP1 POP JUMP JUMPDEST PUSH2 0xBC DUP2 PUSH2 0xA1 JUMP JUMPDEST DUP3 MSTORE POP POP JUMP JUMPDEST PUSH1 0x0 DUP2 SWAP1 POP SWAP2 SWAP1 POP JUMP JUMPDEST PUSH2 0xD5 DUP2 PUSH2 0xC2 JUMP JUMPDEST DUP3 MSTORE POP POP JUMP JUMPDEST PUSH1 0x0 PUSH1 0x60 DUP3 ADD SWAP1 POP PUSH2 0xF0 PUSH1 0x0 DUP4 ADD DUP7 PUSH2 0xB3 JUMP JUMPDEST PUSH2 0xFD PUSH1 0x20 DUP4 ADD DUP6 PUSH2 0xCC JUMP JUMPDEST PUSH2 0x10A PUSH1 0x40 DUP4 ADD DUP5 PUSH2 0xCC JUMP JUMPDEST SWAP5 SWAP4 POP POP POP POP JUMP INVALID LOG2 PUSH5 0x6970667358 0x22 SLT KECCAK256 JUMPI 0xAA 0xB5 PUSH23 0xC2AB276B61D62F86EC4D8192757EF2A05FB6D6CDE588A3 DIV 0x4C DUP7 PUSH27 0x9E64736F6C63430008110033000000000000000000000000000000 "},"methodIdentifiers":{"run()":"c0406226"}}}}}