{
  "_format": "hh-sol-artifact-1",
  "contractName": "EventWork",
  "sourceName": "contracts/EventWork.sol",
  "abi": [
    {
      "anonymous": false,
      "inputs": [
        {
          "indexed": false,
          "internalType": "address",
          "name": "sender",
          "type": "address"
        },
        {
          "indexed": false,
          "internalType": "uint256",
          "name": "ad",
          "type": "uint256"
        },
        {
          "indexed": false,
          "internalType": "uint256",
          "name": "result",
          "type": "uint256"
        }
      ],
      "name": "WorkDone",
      "type": "event"
    },
    {
      "inputs": [],
      "name": "run",
      "outputs": [],
      "stateMutability": "nonpayable",
      "type": "function"
    }
  ],
  "bytecode": "0x608060405234801561001057600080fd5b50610148806100206000396000f3fe608060405234801561001057600080fd5b506004361061002b5760003560e01c8063c040622614610030575b600080fd5b61003861003a565b005b60036000819055507f0cd743b7795372a65ad040abca2e10f032dac32f311a80eac7f9e24a06f430dd3342600054604051610077939291906100db565b60405180910390a1565b600073ffffffffffffffffffffffffffffffffffffffff82169050919050565b60006100ac82610081565b9050919050565b6100bc816100a1565b82525050565b6000819050919050565b6100d5816100c2565b82525050565b60006060820190506100f060008301866100b3565b6100fd60208301856100cc565b61010a60408301846100cc565b94935050505056fea264697066735822122057aab576c2ab276b61d62f86ec4d8192757ef2a05fb6d6cde588a3044c867a9e64736f6c63430008110033",
  "linkReferences": {},
  "deployedLinkReferences": {}
}